:100000000C9463000C948B000C948B000C948B006C
:100010000C948B000C948B000C948B000C948B0034
:100020000C948B000C948B000C948B000C948B0024
:100030000C948B000C948B000C948B000C948B0014
:100040000C946D040C948B000C948B000C948B001E
:100050000C948B000C948B000C948B000C948B00F4
:100060000C948B000C948B000000000024002700EF
:100070002A0000000000250028002B0000000000DE
:1000800023002600290004040404040404040202DA
:100090000202020203030303030301020408102007
:1000A0004080010204081020010204081020000012
:1000B0000008000201000003040700000000000027
:1000C00000005E07440811241FBECFEFD8E0DEBF5A
:1000D000CDBF11E0A0E0B1E0E6E2F5E102C005909D
:1000E0000D92AA3DB107D9F722E0AAEDB1E001C017
:1000F0001D92AB33B207E1F710E0C2E6D0E004C0D6
:100100002197FE010E945B09C136D107C9F70E9401
:10011000B7040C94860A0C9400008F929F92AF92C1
:10012000BF92CF92DF92EF92FF92CF934B01AA241E
:10013000BB24C82DC52ED62EE72EFF24BC2DA42F00
:1001400020911102222361F0829E40011124C92DC9
:100150002C9D60011124BD2D249FF0011124AF2F8F
:10016000E0911702E0901202F09013023091140215
:10017000E31323C09C01220F331F820F931F8E0DA8
:100180009F1DE0911402E80FF92FF11DC083E0914B
:100190001502E80FF92FF11DB08320911602820F8E
:1001A000911DFC01A083CF91FF90EF90DF90CF9045
:1001B000BF90AF909F908F900895880F991F880FE0
:1001C000991F8E0D9F1D472F5527662777272223BE
:1001D00049F030E0249F7001259FF00C349FF00C13
:1001E00011244F2DE80FF92FF11D4083CACF833022
:1001F00081F028F4813099F08230A9F00895873099
:10020000A9F08830C9F08430B1F4809180008F7DEE
:1002100003C0809180008F7780938000089584B51B
:100220008F7784BD089584B58F7DFBCF8091B0001A
:100230008F778093B00008958091B0008F7DF9CFC3
:10024000CF93DF93282F30E0F901E255FF4F8491DF
:10025000F901E656FF4FD491F901EA57FF4FC491D7
:10026000CC23A1F081110E94F700EC2FF0E0EE0FFB
:10027000FF1FE458FF4FA591B491EC91ED2381E06D
:1002800090E009F480E0DF91CF91089580E090E064
:10029000FACF1F93CF93DF93282F30E0F901E25577
:1002A000FF4F8491F901E656FF4FD491F901EA57C7
:1002B000FF4FC491CC23A9F0162F81110E94F700A3
:1002C000EC2FF0E0EE0FFF1FEE58FF4FA591B49119
:1002D0008FB7F894EC91111108C0D095DE23DC9310
:1002E0008FBFDF91CF911F910895DE2BF8CFCF9371
:1002F000DF9390E0FC01E656FF4F24918A579F4F11
:10030000FC0184918823C9F090E0880F991FFC01BB
:10031000E859FF4FA591B491FC01EE58FF4FC591EC
:10032000D49161110DC09FB7F8948C9120958223D0
:100330008C938881282328839FBFDF91CF910895D4
:10034000623051F49FB7F8943C91822F80958323BB
:100350008C93E8812E2BEFCF8FB7F894EC912E2B56
:100360002C938FBFEACF3FB7F8948091050290910C
:100370000602A0910702B091080226B5A89B05C00D
:100380002F3F19F00196A11DB11D3FBFBA2FA92F14
:10039000982F8827BC01CD01620F711D811D911D11
:1003A00042E0660F771F881F991F4A95D1F708957D
:1003B0000F931F93CF93DF93CDB7DEB729970FB677
:1003C000F894DEBF0FBECDBF0E94B30100911802AA
:1003D0001091190220911A0230911B0260177107C7
:1003E0008207930740F46093180270931902809378
:1003F0001A0290931B020091180210911902209189
:100400001A0230911B02601B710B820B930B6C3232
:10041000714081059105C0F2F89480910D02909190
:100420000E029A838983E0911202F0911302DF0198
:1004300011968081898790910902E0911C02F091C8
:100440001D0280911E02992309F445C09081982BCA
:1004500098879081809589238F838F818C8388E012
:100460008B8358856F8149853B812C8189819A8155
:10047000508347FD252F3A952083262F39F0441FBE
:1004800000C000006083000000C0F2CF38E04D9152
:1004900060830000019761F7F0931D02E0931C0256
:1004A00049873B832C839A83898378940E94B30184
:1004B000609318027093190280931A0290931B02A2
:1004C00029960FB6F894DEBF0FBECDBFDF91CF9156
:1004D0001F910F9108959081982B98879081809516
:1004E00089238F838F818E8388E08D8358856F81E8
:1004F00049853D812E8189819A81508347FD252F31
:1005000000C000C0208300C000C000C000C000C008
:1005100060830000262F3A9541F0441F000000C080
:1005200000C000C000C000C0E8CF38E04D9100C05E
:10053000608300C0019709F7F0931D02E0931C024D
:1005400049873D832E83AFCF8F929F92AF92BF9208
:10055000CF92DF92EF92FF924B015C010E94B301B8
:100560006B017C010E94B3016C197D098E099F0902
:10057000683E734081059105A8F321E0821A910835
:10058000A108B10888EEC80E83E0D81EE11CF11C5A
:1005900081149104A104B10429F7FF90EF90DF903A
:1005A000CF90BF90AF909F908F900895AF92BF92E1
:1005B000CF92DF92EF92FF920F931F93CF93DF932F
:1005C0006C017B018B01040F151FEB015E01AE185E
:1005D000BF08C017D10759F06991D601ED91FC9180
:1005E0000190F081E02DC6010995892B79F7C501AD
:1005F000DF91CF911F910F91FF90EF90DF90CF90FF
:10060000BF90AF900895089590E080E00895FC01B8
:1006100001900020E9F73197AF01481B590BBC014D
:100620008FE192E00C94D602CF93DF93EC0160E06F
:100630008E810E94490161E08E810E94490160E043
:100640008E810E9449018BE891E00197F1F7DF91DB
:10065000CF910895CF92DF92EF92FF920F931F9365
:10066000CF93DF936C017C0187E0E80EF11CD0E0B2
:10067000C0E0062F10E0B8010C2E02C075956795FA
:100680000A94E2F76170F70181917F010E944901AC
:100690002196C430D10579F7C601DF91CF911F9122
:1006A0000F91FF90EF90DF90CF900C941403CF92B6
:1006B000DF92EF92FF920F931F93CF93DF93EC01A2
:1006C000F62E642F8C810E9449018D818F3F19F095
:1006D00060E00E9449010F2D10E08F8584FF25C046
:1006E0006E0187E0C80ED11CF12CE12CB8010E2C54
:1006F00002C0759567950A94E2F76170F6018191E1
:100700006F010E944901FFEFEF1AFF0A88E0E81627
:10071000F10461F7CE01DF91CF911F910F91FF900E
:10072000EF90DF90CF900C941403B80184E075959E
:1007300067958A95E1F7CE010E942A036F2DCE01BD
:10074000DF91CF911F910F91FF90EF90DF90CF90AD
:100750000C942A0340E0682F8FE192E00C94570339
:1007600081E00E94AA038BE39FE10197F1F70895CE
:10077000CF93DF93823029F490912E02986090936A
:100780002E02809332021092330280E4809334026E
:1007900080E18093350280E58093360261E08091AC
:1007A00023020E947701809124028F3F19F061E0BB
:1007B0000E94770161E0809125020E947701CFE1DC
:1007C000D2E09E012F51324080912E0284FD0BC059
:1007D00084E090E021962817390744F461E08E8187
:1007E0000E947701EECF88E090E0F4CF8BE39DE0AC
:1007F0000197F1F760E0809123020E94490160E0D7
:10080000809125020E944901809124028F3F19F0B6
:1008100060E00E94490180912E0284FD34C063E0B3
:100820008FE192E00E942A03CBE4D6E4CE01019747
:10083000F1F763E08FE192E00E942A032197F1F73C
:1008400063E08FE192E00E942A0383E592E0019742
:10085000F1F762E08FE192E00E942A0380912E027C
:1008600080620E94AA0384E080932F028CE00E94A1
:10087000AA030E94B00382E08093300286E0DF91F9
:10088000CF910C94AA0380620E94AA038BE496E4A1
:100890000197F1F780912E0280620E94AA0383E5FE
:1008A00092E00197F1F780912E0280620E94AA03E4
:1008B000D5CFE0913202E23040F4E150F0E0E15E69
:1008C000FD4F848980680C94AA03E1E0F7CF41E0F2
:1008D0000E94570381E090E008951F920F920FB697
:1008E0000F9211242F933F938F939F93AF93BF93B6
:1008F0008091010290910202A0910302B091040242
:100900003091000223E0230F2D3758F50196A11DE9
:10091000B11D209300028093010290930202A093E4
:100920000302B09304028091050290910602A09107
:100930000702B09108020196A11DB11D8093050226
:1009400090930602A0930702B0930802BF91AF9163
:100950009F918F913F912F910F900FBE0F901F90FD
:10096000189526E8230F0296A11DB11DD2CFCF9373
:10097000DF93CDB7DEB7A5970FB6F894DEBF0FBEF5
:10098000CDBF789484B5826084BD84B5816084BD18
:1009900085B5826085BD85B5816085BD80916E001D
:1009A000816080936E00109281008091810082604E
:1009B000809381008091810081608093810080918B
:1009C00080008160809380008091B100846080937A
:1009D000B1008091B00081608093B00080917A0076
:1009E000846080937A0080917A00826080937A009C
:1009F00080917A00816080937A0080917A0080688B
:100A000080937A001092C10084B7877F84BF0FB6AD
:100A1000F894A8958091600088618093600010929E
:100A200060000FBE60ED77E080E090E00E94A402DD
:100A300000E411E062E0F80180810E9477010E5F1E
:100A40001F4FF1E008341F07A9F780910F02909122
:100A5000100297FD08C061E00E94770160E080917C
:100A60000F020E94490181E080930A022091110245
:100A7000222349F100911202109113022150F1F04A
:100A800030E050E040E06FEF7FEF80E090E00E94C8
:100A9000F808F80140910D0250910E02CF01801B21
:100AA000910B8417950768F4DF014D91429FC001B7
:100AB000439F900D11249083FD01ECCF30E020E0A6
:100AC000E8CF1092110282E00E94B8030E94B003A6
:100AD0008EE591E00E94070360ED77E080E090E012
:100AE0000E94A4020E94B0038DE691E00E940703D9
:100AF0000E9459048AE791E00E94070360ED77E0C5
:100B000080E090E00E94A4020E94B0038DE691E094
:100B10000E9407030E9459048BE891E00E9407039A
:100B200082E00E9420010197D9F30E94B0038AE974
:100B300091E00E94070360ED77E080E090E00E9482
:100B4000A4020E94B301611571058105910511F0A0
:100B50000E94EF0888E199E20FB6F894A895809377
:100B600060000FBE909360000E94A00828E030E073
:100B700040E050E00E94F8082B017BA36AA30E948A
:100B8000A00823E030E040E050E00E94F8086B014C
:100B90004B019E012F5F3F4F190110E000E0C201A1
:100BA000880F991F880F991FFC01E252FE4FFDA389
:100BB000ECA38016910609F099C0ECA1FDA140813B
:100BC00051816281738180910B0290910C02881691
:100BD000990618F4C4010E948D002AA13BA1F101DD
:100BE000318320830F5F1F4FF2E02F0E311C033043
:100BF0001105F9F68091120290911302892B11F0E0
:100C00000E94D8010E94B003C20133E0880F991FEF
:100C10003A95E1F780509F4F0E940703A8952FB7A0
:100C2000F8948091010290910202A0910302B09188
:100C300004022FBF8093DA019093DB01A093DC01C3
:100C4000B093DD0181E00E942001019731F587E03A
:100C50000E942001019709F58CE00E942001019774
:100C6000E1F42FB7F8948091010290910202A091D3
:100C70000302B09104022FBF4091DA015091DB01D1
:100C80006091DC017091DD01841B950BA60BB70B05
:100C9000893E9340A105B105A8F20E94B003F60178
:100CA000EE0FFF1FE05CFE4F80810E942001892B28
:100CB00009F053C0A89587EA91E00E94070380914C
:100CC000FE019091FF0101969093FF018093FE0138
:100CD00068EE73E080E090E00E94A40280E090E083
:100CE000892B09F441CF0E9400003ECF0E94A0084A
:100CF00028E030E040E050E00E94F8085B01EAA103
:100D0000FBA1E617F70791F3101611066CF4298181
:100D10003A816217730751F30130110529F02B81D5
:100D20003C816217730711F320910B0230910C0282
:100D30000217130770F4660F771F660F771F625252
:100D40007E4FFB014081518162817381C8010E9405
:100D50008D00F101B182A08245CF2FB7F894809128
:100D6000010290910202A0910302B09104022FBFF0
:100D70004091DA015091DB016091DC017091DD015D
:100D8000841B950BA60BB70B893E9340A105B105BB
:100D900008F476C081EB91E00E94070360ED77E0F4
:100DA00080E090E00E94A4020E94B00389EC91E0F0
:100DB0000E9407030E94590483ED91E00E940703FB
:100DC000C090FE01D090FF010D2C000CEE08FF0832
:100DD000F7FE59C041E06DE28FE192E00E945703B7
:100DE00022273327A9012C193D094E095F0919A2B1
:100DF0008E010F5D1F4F9AE0C92ED12CE12CF12CF2
:100E0000CA01B901A70196010E942A09605DF80193
:100E100062938F01211531054105510589F70115AF
:100E2000110561F001900020E9F73197AF01401BF7
:100E3000510BB8018FE192E00E94D60210E000E071
:100E400080910B0290910C020817190758F44091F9
:100E5000DE015091DF016091E0017091E101C80174
:100E60000E948D000F5F1F4F0330110549F78091DD
:100E7000120290911302892B11F00E94D801FFCF2A
:100E800080EC91E089CFA701960119A28E010F5D38
:100E90001F4F8AE0C82ED12CE12CF12CCA01B901D8
:100EA000A70196010E942A09605DF80162938F01F3
:100EB000211531054105510589F7B1CF10920A027C
:100EC00010921102109218021092190210921A0236
:100ED00010921B0281E080931702809314021092FB
:100EE000150292E0909316028093090289E090E047
:100EF00090930E0280930D020E9461099093130259
:100F000080931202009709F4B6C029E0FC01119207
:100F10002A95E9F783E090E090930C0280930B020E
:100F20001092100210920F0280910A02882341F061
:100F300061E080E00E94770160E080E00E9449016A
:100F4000E6E8F0E0E491F0E0EE0FFF1FEE58FF4F0F
:100F50008591949190931D0280931C02EAE9F0E040
:100F6000E491E0931E02109222021092210286E583
:100F700091E09093200280931F0283E180932302EB
:100F80008FEF8093240282E18093250281E1809398
:100F9000260280E1809327028FE0809328028EE072
:100FA0008093290210922A0210922B0210922C0296
:100FB00010922D0210922E0281E00E94B80310922E
:100FC000DE011092DF011092E0011092E1018FEF3B
:100FD00090E0A0E0B0E08093E2019093E301A09361
:100FE000E401B093E50180E09FEFA0E0B0E08093E2
:100FF000E6019093E701A093E801B093E9018FEF38
:101000009FEFA0E0B0E08093EA019093EB01A09302
:10101000EC01B093ED0180E090E0AFEFB0E08093A1
:10102000EE019093EF01A093F001B093F1018FEFE7
:1010300090E0DC018093F2019093F301A093F4011E
:10104000B093F50180E09FEFAFEFB0E08093F60141
:101050009093F701A093F801B093F9018FEF9FEF00
:10106000AFEFB0E08093FA019093FB01A093FC01F5
:10107000B093FD01089510920E0210920D0210928D
:101080000C0210920B024CCF80911202909113022D
:101090000E94FD0980910F029091100297FD03C0FC
:1010A00060E00C94770108958F929F92AF92BF9267
:1010B000CF92DF92EF92FF92CF93DF93EC016881A2
:1010C00079818A819B81611571058105910521F4E2
:1010D00064E279ED8BE597E02DE133EF41E050E0FC
:1010E0000E94F80849015A019B01AC01A7EAB1E44A
:1010F0000E9417096B017C01ACEEB4EFA5019401CD
:101100000E942509C60ED71EE81EF91EF7FE06C06E
:1011100081E0C81AD108E10880E8F80AC882D982BB
:10112000EA82FB82C701B6019F77DF91CF91FF90E2
:10113000EF90DF90CF90BF90AF909F908F900895E9
:101140008F929F92AF92BF92CF92DF92EF92FF92D7
:10115000609148017091490180914A0190914B0141
:10116000611571058105910521F464E279ED8BE546
:1011700097E02DE133EF41E050E00E94F80849018B
:101180005A019B01AC01A7EAB1E40E9417096B0167
:101190007C01ACEEB4EFA50194010E942509C60EB6
:1011A000D71EE81EF91EF7FE06C081E0C81AD10856
:1011B000E10880E8F80AC0924801D0924901E09223
:1011C0004A01F0924B01C701B6019F77FF90EF9063
:1011D000DF90CF90BF90AF909F908F9008956093D5
:1011E00048017093490180934A0190934B010895FF
:1011F000052E97FB1EF400940E940F0957FD07D09F
:101200000E942A0907FC03D04EF40C940F09509554
:101210004095309521953F4F4F4F5F4F08959095E2
:101220008095709561957F4F8F4F9F4F08950E94D5
:101230004C09A59F900DB49F900DA49F800D911D0A
:1012400011240895B7FF0C9417090E941709821BF7
:10125000930B0895A1E21A2EAA1BBB1BFD010DC022
:10126000AA1FBB1FEE1FFF1FA217B307E407F50756
:1012700020F0A21BB30BE40BF50B661F771F881F32
:10128000991F1A9469F760957095809590959B01C8
:10129000AC01BD01CF010895A29FB001B39FC00171
:1012A000A39F700D811D1124911DB29F700D811D92
:1012B0001124911D0895EE0FFF1F0590F491E02D6C
:1012C00009940F931F93CF93DF938230910510F40D
:1012D00082E090E0E0913902F0913A0230E020E0C3
:1012E000B0E0A0E0309799F42115310509F44AC027
:1012F000281B390B24303105D8F58A819B81611573
:10130000710589F1FB0193838283FE0111C0408145
:1013100051810281138148175907E0F04817590796
:1013200099F4109761F012960C93129713961C93F0
:101330003296CF01DF91CF911F910F9108950093C5
:10134000390210933A02F4CF2115310551F04217BA
:10135000530738F0A901DB019A01BD01DF01F80153
:10136000C1CFEF01F9CF90933A0280933902CDCFEC
:10137000FE01E20FF31F81939193225031093983CB
:101380002883D7CF2091370230913802232B41F4A4
:1013900020914E0130914F01309338022093370253
:1013A00020914C0130914D012115310541F42DB7AB
:1013B0003EB74091500150915101241B350BE091F3
:1013C0003702F0913802E217F307A0F42E1B3F0B0F
:1013D0002817390778F0AC014E5F5F4F24173507A7
:1013E00048F04E0F5F1F50933802409337028193AD
:1013F00091939FCFF0E0E0E09CCFCF93DF930097F5
:10140000E9F0FC01329713821282A0913902B09167
:101410003A02ED0130E020E01097A1F42081318103
:10142000820F931F20913702309138022817390715
:1014300009F061C0F0933802E0933702DF91CF9159
:101440000895EA01CE17DF07E8F54A815B819E0126
:1014500041155105B1F7E901FB83EA83499159919F
:10146000C40FD51FEC17FD0761F4808191810296AE
:10147000840F951FE90199838883828193819B83DF
:101480008A83F0E0E0E012968D919C91139700978B
:10149000B9F52D913C911197CD010296820F931FC2
:1014A00020913702309138022817390739F63097E2
:1014B00051F510923A0210923902B0933802A0937B
:1014C0003702BCCFD383C28340815181840F951FE3
:1014D000C817D90761F44E5F5F4F88819981480F23
:1014E000591F518340838A819B8193838283211575
:1014F000310509F0B0CFF0933A02E09339029ECF64
:10150000FD01DC01C0CF13821282D7CF10E0C2E60A
:10151000D0E004C0FE010E945B092196C336D107CA
:06152000C9F7F894FFCFAB
:10152600486974616D000000426972750000000030
:1015360048696A61750000004379616E0000000029
:101546004D657261680000004D6167656E746100EB
:101556004B756E696E67000050757469680000000F
:10156600010007000C0002000100000000003B0221
:101576008000000000006704D602040303035365DD
:101586006C616D617420446174616E670054656BB3
:10159600616E20746F6D626F6C006C616D7075208A
:1015A60079616E672062656E617200737461727430
:1015B60020752F206D756C61690047616D6520444B
:1015C600696D756C616900424554554C4C21212169
:1015D6000057414B5455204841424953212121008F
:1015E60053414C41482121210047616D65204F76CA
:0A15F600657200536B6F723A20001B
:00000001FF
