:020000040000FA
:100000000C9463000C948B000C948B000C948B006C
:100010000C948B000C948B000C948B000C948B0034
:100020000C948B000C948B000C948B000C948B0024
:100030000C948B000C948B000C948B000C948B0014
:100040000C946D040C948B000C948B000C948B001E
:100050000C948B000C948B000C948B000C948B00F4
:100060000C948B000C948B000000000024002700EF
:100070002A0000000000250028002B0000000000DE
:1000800023002600290004040404040404040202DA
:100090000202020203030303030301020408102007
:1000A0004080010204081020010204081020000012
:1000B0000008000201000003040700000000000027
:1000C00000005C07420811241FBECFEFD8E0DEBF5E
:1000D000CDBF11E0A0E0B1E0E2E2F5E102C00590A1
:1000E0000D92A63DB107D9F722E0A6EDB1E001C01F
:1000F0001D92A733B207E1F710E0C2E6D0E004C0DA
:100100002197FE010E945909C136D107C9F70E9403
:10011000B7040C94840A0C9400008F929F92AF92C3
:10012000BF92CF92DF92EF92FF92CF934B01AA241E
:10013000BB24C82DC52ED62EE72EFF24BC2DA42F00
:1001400020910D02222361F0829E40011124C92DCD
:100150002C9D60011124BD2D249FF0011124AF2F8F
:10016000E0911302E0900E02F0900F023091100225
:10017000E31323C09C01220F331F820F931F8E0DA8
:100180009F1DE0911002E80FF92FF11DC083E0914F
:100190001102E80FF92FF11DB08320911202820F96
:1001A000911DFC01A083CF91FF90EF90DF90CF9045
:1001B000BF90AF909F908F900895880F991F880FE0
:1001C000991F8E0D9F1D472F5527662777272223BE
:1001D00049F030E0249F7001259FF00C349FF00C13
:1001E00011244F2DE80FF92FF11D4083CACF833022
:1001F00081F028F4813099F08230A9F00895873099
:10020000A9F08830C9F08430B1F4809180008F7DEE
:1002100003C0809180008F7780938000089584B51B
:100220008F7784BD089584B58F7DFBCF8091B0001A
:100230008F778093B00008958091B0008F7DF9CFC3
:10024000CF93DF93282F30E0F901E255FF4F8491DF
:10025000F901E656FF4FD491F901EA57FF4FC491D7
:10026000CC23A1F081110E94F700EC2FF0E0EE0FFB
:10027000FF1FE458FF4FA591B491EC91ED2381E06D
:1002800090E009F480E0DF91CF91089580E090E064
:10029000FACF1F93CF93DF93282F30E0F901E25577
:1002A000FF4F8491F901E656FF4FD491F901EA57C7
:1002B000FF4FC491CC23A9F0162F81110E94F700A3
:1002C000EC2FF0E0EE0FFF1FEE58FF4FA591B49119
:1002D0008FB7F894EC91111108C0D095DE23DC9310
:1002E0008FBFDF91CF911F910895DE2BF8CFCF9371
:1002F000DF9390E0FC01E656FF4F24918A579F4F11
:10030000FC0184918823C9F090E0880F991FFC01BB
:10031000E859FF4FA591B491FC01EE58FF4FC591EC
:10032000D49161110DC09FB7F8948C9120958223D0
:100330008C938881282328839FBFDF91CF910895D4
:10034000623051F49FB7F8943C91822F80958323BB
:100350008C93E8812E2BEFCF8FB7F894EC912E2B56
:100360002C938FBFEACF3FB7F89480910102909110
:100370000202A0910302B091040226B5A89B05C019
:100380002F3F19F00196A11DB11D3FBFBA2FA92F14
:10039000982F8827BC01CD01620F711D811D911D11
:1003A00042E0660F771F881F991F4A95D1F708957D
:1003B0000F931F93CF93DF93CDB7DEB729970FB677
:1003C000F894DEBF0FBECDBF0E94B30100911402AE
:1003D00010911502209116023091170260177107D3
:1003E0008207930740F46093140270931502809380
:1003F0001602909317020091140210911502209199
:10040000160230911702601B710B820B930B6C323A
:10041000714081059105C0F2F89480910902909194
:100420000A029A838983E0910E02F0910F02DF01A4
:1004300011968081898790910502E0911802F091D0
:10044000190280911A02992309F445C09081982BD2
:1004500098879081809589238F838F818C8388E012
:100460008B8358856F8149853B812C8189819A8155
:10047000508347FD252F3A952083262F39F0441FBE
:1004800000C000006083000000C0F2CF38E04D9152
:1004900060830000019761F7F0931902E09318025E
:1004A00049873B832C839A83898378940E94B30184
:1004B00060931402709315028093160290931702B2
:1004C00029960FB6F894DEBF0FBECDBFDF91CF9156
:1004D0001F910F9108959081982B98879081809516
:1004E00089238F838F818E8388E08D8358856F81E8
:1004F00049853D812E8189819A81508347FD252F31
:1005000000C000C0208300C000C000C000C000C008
:1005100060830000262F3A9541F0441F000000C080
:1005200000C000C000C000C0E8CF38E04D9100C05E
:10053000608300C0019709F7F0931902E093180255
:1005400049873D832E83AFCF8F929F92AF92BF9208
:10055000CF92DF92EF92FF924B015C010E94B301B8
:100560006B017C010E94B3016C197D098E099F0902
:10057000683E734081059105A8F321E0821A910835
:10058000A108B10888EEC80E83E0D81EE11CF11C5A
:1005900081149104A104B10429F7FF90EF90DF903A
:1005A000CF90BF90AF909F908F900895AF92BF92E1
:1005B000CF92DF92EF92FF920F931F93CF93DF932F
:1005C0006C017B018B01040F151FEB015E01AE185E
:1005D000BF08C017D10759F06991D601ED91FC9180
:1005E0000190F081E02DC6010995892B79F7C501AD
:1005F000DF91CF911F910F91FF90EF90DF90CF90FF
:10060000BF90AF900895089590E080E00895FC01B8
:1006100001900020E9F73197AF01481B590BBC014D
:100620008BE192E00C94D602CF93DF93EC0160E073
:100630008E810E94490161E08E810E94490160E043
:100640008E810E9449018BE891E00197F1F7DF91DB
:10065000CF910895CF92DF92EF92FF920F931F9365
:10066000CF93DF936C017C0187E0E80EF11CD0E0B2
:10067000C0E0062F10E0B8010C2E02C075956795FA
:100680000A94E2F76170F70181917F010E944901AC
:100690002196C430D10579F7C601DF91CF911F9122
:1006A0000F91FF90EF90DF90CF900C941403CF92B6
:1006B000DF92EF92FF920F931F93CF93DF93EC01A2
:1006C000F62E642F8C810E9449018D818F3F19F095
:1006D00060E00E9449010F2D10E08F8584FF25C046
:1006E0006E0187E0C80ED11CF12CE12CB8010E2C54
:1006F00002C0759567950A94E2F76170F6018191E1
:100700006F010E944901FFEFEF1AFF0A88E0E81627
:10071000F10461F7CE01DF91CF911F910F91FF900E
:10072000EF90DF90CF900C941403B80184E075959E
:1007300067958A95E1F7CE010E942A036F2DCE01BD
:10074000DF91CF911F910F91FF90EF90DF90CF90AD
:100750000C942A0340E0682F8BE192E00C9457033D
:1007600081E00E94AA038BE39FE10197F1F70895CE
:10077000CF93DF93823029F490912A02986090936E
:100780002A0280932E0210922F0280E4809330027E
:1007900080E18093310280E58093320261E08091B4
:1007A0001F020E947701809120028F3F19F061E0C3
:1007B0000E94770161E0809121020E947701CBE1E4
:1007C000D2E09E012B51324080912A0284FD0BC061
:1007D00084E090E021962817390744F461E08E8187
:1007E0000E947701EECF88E090E0F4CF8BE39DE0AC
:1007F0000197F1F760E080911F020E94490160E0DB
:10080000809121020E944901809120028F3F19F0BE
:1008100060E00E94490180912A0284FD34C063E0B7
:100820008BE192E00E942A03CBE4D6E4CE0101974B
:10083000F1F763E08BE192E00E942A032197F1F740
:1008400063E08BE192E00E942A0383E592E0019746
:10085000F1F762E08BE192E00E942A0380912A0284
:1008600080620E94AA0384E080932B028CE00E94A5
:10087000AA030E94B00382E080932C0286E0DF91FD
:10088000CF910C94AA0380620E94AA038BE496E4A1
:100890000197F1F780912A0280620E94AA0383E502
:1008A00092E00197F1F780912A0280620E94AA03E8
:1008B000D5CFE0912E02E23040F4E150F0E0E55E69
:1008C000FD4F848980680C94AA03E1E0F7CF41E0F2
:1008D0000E94570381E090E008951F920F920FB697
:1008E0000F9211242F933F938F939F93AF93BF93B6
:1008F0008091FD019091FE01A091FF01B091000255
:100900003091FC0123E0230F2D3758F50196A11DEE
:10091000B11D2093FC018093FD019093FE01A093F3
:10092000FF01B09300028091010290910202A09118
:100930000302B09104020196A11DB11D8093010232
:1009400090930202A0930302B0930402BF91AF916F
:100950009F918F913F912F910F900FBE0F901F90FD
:10096000189526E8230F0296A11DB11DD2CFCF9373
:10097000DF93CDB7DEB7A6970FB6F894DEBF0FBEF4
:10098000CDBF789484B5826084BD84B5816084BD18
:1009900085B5826085BD85B5816085BD80916E001D
:1009A000816080936E00109281008091810082604E
:1009B000809381008091810081608093810080918B
:1009C00080008160809380008091B100846080937A
:1009D000B1008091B00081608093B00080917A0076
:1009E000846080937A0080917A00826080937A009C
:1009F00080917A00816080937A0080917A0080688B
:100A000080937A001092C10084B7877F84BF0FB6AD
:100A1000F894A8958091600088618093600010929E
:100A200060000FBE60ED77E080E090E00E94A402DD
:100A300006E511E062E0F80181918F010E947701E3
:100A4000F1E00A351F07B1F780910B0290910C027B
:100A500097FD08C061E00E94770160E080910B0281
:100A60000E94490181E08093060220910D02222319
:100A700049F100910E0210910F022150F1F030E087
:100A800050E040E06FEF7FEF80E090E00E94F608DA
:100A9000F8014091090250910A02CF01801B910B8D
:100AA0008417950768F4DF014D91429FC001439F71
:100AB000900D11249083FD01ECCF30E020E0E8CFD1
:100AC00010920D0282E00E94B8030E94B0038AE5F2
:100AD00091E00E94070360ED77E080E090E00E94E3
:100AE000A4020E94B00389E691E00E9407030E94DD
:100AF000590486E791E00E94070360ED77E080E00B
:100B000090E00E94A4020E94B00389E691E00E9456
:100B100007030E94590487E891E00E94070382E0DE
:100B20000E9420010197D9F30E94B00386E991E069
:100B30000E94070360ED77E080E090E00E94A4024D
:100B40000E94B301611571058105910511F00E94A4
:100B5000ED0888E199E20FB6F894A89580936000BB
:100B60000FBE9093600058E0852E912CA12CB12CE3
:100B700063E0262E312C412C512C772473940E9453
:100B80009E08A50194010E94F608C62E662E0E94BA
:100B90009E08A20191010E94F608D62E6AA319822E
:100BA0001A821B8210E000E08C2D90E09C01220F45
:100BB000331F220F331FA90146525E4F5CA34BA384
:100BC000E1E0F0E0EC0FFD1FE80FF91FFEA3EDA33D
:100BD000FAA1F01391C0EBA1FCA140815181628187
:100BE000738180910702909108020817190718F481
:100BF000C8010E948D00EDA1FEA170820F5F1F4F02
:100C00000330110529F780910E0290910F02892B74
:100C100011F00E94D8010E94B003F8E0CF9EC001FD
:100C200011248A5E9E4F0E940703A8952FB7F8945F
:100C30008091FD019091FE01A091FF01B091000211
:100C40002FBF8093D6019093D701A093D801B09382
:100C5000D90181E00E942001019731F587E00E94CF
:100C60002001019709F58CE00E9420010197E1F431
:100C70002FB7F8948091FD019091FE01A091FF01A2
:100C8000B09100022FBF4091D6015091D7016091E1
:100C9000D8017091D901841B950BA60BB70B893E27
:100CA0009340A105B105A8F20E94B003ED2DF0E03C
:100CB000EA5AFE4F80810E942001892B09F04BC027
:100CC000A89583EA91E00E9407038091FA01909130
:100CD000FB0101969093FB018093FA0168EE73E0AB
:100CE00080E090E00E94A40240E050E0452B09F42F
:100CF00046CF0E94000043CF0E949E08A5019401A8
:100D00000E94F6086616C1F3E62EF12CE1E0F0E051
:100D1000EC0FFD1FEE0DFF1D80818111EDCF809145
:100D20000702909108020817190770F4F701EE0FF7
:100D3000FF1FEE0FFF1FE652FE4F4081518162817F
:100D40007381C8010E948D00E1E0F0E0EC0FFD1F0F
:100D5000EE0DFF1D52CF2FB7F8948091FD019091B9
:100D6000FE01A091FF01B09100022FBF4091D6017A
:100D70005091D7016091D8017091D901841B950BD6
:100D8000A60BB70B893E9340A105B10508F476C0C8
:100D90008DEA91E00E94070360ED77E080E090E04B
:100DA0000E94A4020E94B00385EC91E00E94070318
:100DB0000E9459048FEC91E00E940703C090FA0151
:100DC000D090FB010D2C000CEE08FF08F7FE59C077
:100DD00041E06DE28BE192E00E9457032227332726
:100DE000A9012C193D094E095F0919A28E010F5D59
:100DF0001F4F9AE0C92ED12CE12CF12CCA01B90168
:100E0000A70196010E942809605DF80162938F0195
:100E1000211531054105510589F70115110561F0CD
:100E200001900020E9F73197AF01401B510BB80149
:100E30008BE192E00E94D60210E000E08091070270
:100E4000909108020817190758F44091DA0150915F
:100E5000DB016091DC017091DD01C8010E948D0011
:100E60000F5F1F4F0330110549F780910E029091DB
:100E70000F02892B11F00E94D801FFCF8CEB91E07B
:100E800089CFA701960119A28E010F5D1F4F8AE03D
:100E9000C82ED12CE12CF12CCA01B901A701960171
:100EA0000E942809605DF80162938F0121153105C8
:100EB0004105510589F7B1CF1092060210920D023B
:100EC000109214021092150210921602109217023C
:100ED00081E080931302809310021092110292E03D
:100EE000909312028093050289E090E090930A02A9
:100EF000809309020E945F0990930F0280930E0273
:100F0000009709F4B6C029E0FC0111922A95E9F78F
:100F100083E090E0909308028093070210920C0205
:100F200010920B0280910602882341F061E080E07C
:100F30000E94770160E080E00E944901E6E8F0E06D
:100F4000E491F0E0EE0FFF1FEE58FF4F8591949172
:100F50009093190280931802EAE9F0E0E491E0939B
:100F60001A0210921E0210921D028EE091E09093E0
:100F70001C0280931B0283E180931F028FEF8093FA
:100F8000200282E18093210281E18093220280E1AC
:100F9000809323028FE0809324028EE080932502C9
:100FA0001092260210922702109228021092290213
:100FB00010922A0281E00E94B8031092DA01109286
:100FC000DB011092DC011092DD018FEF90E0A0E0D8
:100FD000B0E08093DE019093DF01A093E001B09335
:100FE000E10180E09FEFA0E0B0E08093E201909308
:100FF000E301A093E401B093E5018FEF9FEFA0E040
:10100000B0E08093E6019093E701A093E801B093EC
:10101000E90180E090E0AFEFB0E08093EA019093C7
:10102000EB01A093EC01B093ED018FEF90E0DC01B8
:101030008093EE019093EF01A093F001B093F10142
:1010400080E09FEFAFEFB0E08093F2019093F30167
:10105000A093F401B093F5018FEF9FEFAFEFB0E0F5
:101060008093F6019093F701A093F801B093F901F2
:10107000089510920A02109209021092080210922A
:1010800007024CCF80910E0290910F020E94FB0943
:1010900080910B0290910C0297FD03C060E00C94CC
:1010A000770108958F929F92AF92BF92CF92DF9275
:1010B000EF92FF92CF93DF93EC01688179818A816F
:1010C0009B81611571058105910521F464E279ED3B
:1010D0008BE597E02DE133EF41E050E00E94F60808
:1010E00049015A019B01AC01A7EAB1E40E9415092C
:1010F0006B017C01ACEEB4EFA50194010E942309C1
:10110000C60ED71EE81EF91EF7FE06C081E0C81AFB
:10111000D108E10880E8F80AC882D982EA82FB8215
:10112000C701B6019F77DF91CF91FF90EF90DF90DD
:10113000CF90BF90AF909F908F9008958F929F9285
:10114000AF92BF92CF92DF92EF92FF926091000137
:101150007091010180910201909103016115710567
:101160008105910521F464E279ED8BE597E02DE1AD
:1011700033EF41E050E00E94F60849015A019B011B
:10118000AC01A7EAB1E40E9415096B017C01ACEE49
:10119000B4EFA50194010E942309C60ED71EE81ED4
:1011A000F91EF7FE06C081E0C81AD108E10880E800
:1011B000F80AC0920001D0920101E0920201F0927F
:1011C0000301C701B6019F77FF90EF90DF90CF90AA
:1011D000BF90AF909F908F9008956093000170939F
:1011E000010180930201909303010895052E97FB5E
:1011F0001EF400940E940D0957FD07D00E94280993
:1012000007FC03D04EF40C940D0950954095309591
:1012100021953F4F4F4F5F4F089590958095709562
:1012200061957F4F8F4F9F4F08950E944A09A59F58
:10123000900DB49F900DA49F800D911D11240895D1
:10124000B7FF0C9415090E941509821B930B089592
:10125000A1E21A2EAA1BBB1BFD010DC0AA1FBB1FBA
:10126000EE1FFF1FA217B307E407F50720F0A21B2C
:10127000B30BE40BF50B661F771F881F991F1A9499
:1012800069F760957095809590959B01AC01BD01C3
:10129000CF010895A29FB001B39FC001A39F700D1D
:1012A000811D1124911DB29F700D811D1124911D6E
:1012B0000895EE0FFF1F0590F491E02D09940F9310
:1012C0001F93CF93DF938230910510F482E090E07A
:1012D000E0913502F091360230E020E0B0E0A0E08D
:1012E000309799F42115310509F44AC0281B390BB0
:1012F00024303105D8F58A819B816115710589F10A
:10130000FB0193838283FE0111C0408151810281E0
:10131000138148175907E0F04817590799F41097B7
:1013200061F012960C93129713961C933296CF018C
:10133000DF91CF911F910F91089500933502109383
:101340003602F4CF2115310551F04217530738F01A
:10135000A901DB019A01BD01DF01F801C1CFEF0155
:10136000F9CF9093360280933502CDCFFE01E20F84
:10137000F31F819391932250310939832883D7CF6A
:101380002091330230913402232B41F42091060145
:1013900030910701309334022093330220910401ED
:1013A000309105012115310541F42DB73EB740912B
:1013B000080150910901241B350BE0913302F09193
:1013C0003402E217F307A0F42E1B3F0B281739074E
:1013D00078F0AC014E5F5F4F2417350748F04E0F91
:1013E0005F1F5093340240933302819391939FCFB8
:1013F000F0E0E0E09CCFCF93DF930097E9F0FC01B1
:10140000329713821282A0913502B0913602ED011B
:1014100030E020E01097A1F420813181820F931FEA
:1014200020913302309134022817390709F061C046
:10143000F0933402E0933302DF91CF910895EA01F3
:10144000CE17DF07E8F54A815B819E014115510502
:10145000B1F7E901FB83EA8349915991C40FD51F84
:10146000EC17FD0761F4808191810296840F951F2E
:10147000E90199838883828193819B838A83F0E049
:10148000E0E012968D919C9113970097B9F52D91FC
:101490003C911197CD010296820F931F2091330248
:1014A000309134022817390739F6309751F51092E8
:1014B000360210923502B0933402A0933302BCCFAF
:1014C000D383C28340815181840F951FC817D907E8
:1014D00061F44E5F5F4F88819981480F591F518396
:1014E00040838A819B81938382832115310509F092
:1014F000B0CFF0933602E09335029ECFFD01DC01C0
:10150000C0CF13821282D7CF10E0C2E6D0E004C071
:10151000FE010E9459092196C336D107C9F7F894F4
:10152000FFCF010000000000370280000000000033
:101530006704D60204030303486974616D00000068
:10154000426972750000000048696A617500000018
:101550004379616E000000004D6572616800000013
:101560004D6167656E7461004B756E696E67000052
:10157000507574696800000001070C0253656C61C6
:101580006D617420446174616E670054656B616EB7
:1015900020746F6D626F6C006C616D707520796185
:1015A0006E672062656E617200737461727420757B
:1015B0002F206D756C61690047616D652044696D10
:1015C000756C616900424554554C4C2121210057EE
:1015D000414B545520484142495321212100534158
:1015E0004C41482121210047616D65204F7665728D
:0815F00000536B6F723A2000FA
:107E0000112484B714BE81FFF0D085E080938100F7
:107E100082E08093C00088E18093C10086E0809377
:107E2000C20080E18093C4008EE0C9D0259A86E02C
:107E300020E33CEF91E0309385002093840096BBD3
:107E4000B09BFECF1D9AA8958150A9F7CC24DD24C4
:107E500088248394B5E0AB2EA1E19A2EF3E0BF2EE7
:107E6000A2D0813461F49FD0082FAFD0023811F036
:107E7000013811F484E001C083E08DD089C08234E0
:107E800011F484E103C0853419F485E0A6D080C0E4
:107E9000853579F488D0E82EFF2485D0082F10E0AE
:107EA000102F00270E291F29000F111F8ED06801E7
:107EB0006FC0863521F484E090D080E0DECF843638
:107EC00009F040C070D06FD0082F6DD080E0C81688
:107ED00080E7D80618F4F601B7BEE895C0E0D1E017
:107EE00062D089930C17E1F7F0E0CF16F0E7DF06D8
:107EF00018F0F601B7BEE89568D007B600FCFDCFD4
:107F0000A601A0E0B1E02C9130E011968C91119780
:107F100090E0982F8827822B932B1296FA010C0160
:107F200087BEE89511244E5F5F4FF1E0A038BF0790
:107F300051F7F601A7BEE89507B600FCFDCF97BE46
:107F4000E89526C08437B1F42ED02DD0F82E2BD052
:107F50003CD0F601EF2C8F010F5F1F4F84911BD097
:107F6000EA94F801C1F70894C11CD11CFA94CF0C13
:107F7000D11C0EC0853739F428D08EE10CD085E9AC
:107F80000AD08FE07ACF813511F488E018D01DD067
:107F900080E101D065CF982F8091C00085FFFCCF94
:107FA0009093C60008958091C00087FFFCCF809118
:107FB000C00084FD01C0A8958091C6000895E0E648
:107FC000F0E098E1908380830895EDDF803219F02E
:107FD00088E0F5DFFFCF84E1DECF1F93182FE3DFCA
:107FE0001150E9F7F2DF1F91089580E0E8DFEE27F6
:047FF000FF270994CA
:027FFE00040479
:00000001FF
